{
  "_format": "hh-sol-artifact-1",
  "contractName": "GreenToken",
  "sourceName": "contracts/GreenToken.sol",
  "abi": [
    {
      "inputs": [
        {
          "internalType": "address",
          "name": "initialOwner",
          "type": "address"
        }
      ],
      "stateMutability": "nonpayable",
      "type": "constructor"
    },
    {
      "inputs": [
        {
          "internalType": "address",
          "name": "spender",
          "type": "address"
        },
        {
          "internalType": "uint256",
          "name": "allowance",
          "type": "uint256"
        },
        {
          "internalType": "uint256",
          "name": "needed",
          "type": "uint256"
        }
      ],
      "name": "ERC20InsufficientAllowance",
      "type": "error"
    },
    {
      "inputs": [
        {
          "internalType": "address",
          "name": "sender",
          "type": "address"
        },
        {
          "internalType": "uint256",
          "name": "balance",
          "type": "uint256"
        },
        {
          "internalType": "uint256",
          "name": "needed",
          "type": "uint256"
        }
      ],
      "name": "ERC20InsufficientBalance",
      "type": "error"
    },
    {
      "inputs": [
        {
          "internalType": "address",
          "name": "approver",
          "type": "address"
        }
      ],
      "name": "ERC20InvalidApprover",
      "type": "error"
    },
    {
      "inputs": [
        {
          "internalType": "address",
          "name": "receiver",
          "type": "address"
        }
      ],
      "name": "ERC20InvalidReceiver",
      "type": "error"
    },
    {
      "inputs": [
        {
          "internalType": "address",
          "name": "sender",
          "type": "address"
        }
      ],
      "name": "ERC20InvalidSender",
      "type": "error"
    },
    {
      "inputs": [
        {
          "internalType": "address",
          "name": "spender",
          "type": "address"
        }
      ],
      "name": "ERC20InvalidSpender",
      "type": "error"
    },
    {
      "inputs": [
        {
          "internalType": "address",
          "name": "owner",
          "type": "address"
        }
      ],
      "name": "OwnableInvalidOwner",
      "type": "error"
    },
    {
      "inputs": [
        {
          "internalType": "address",
          "name": "account",
          "type": "address"
        }
      ],
      "name": "OwnableUnauthorizedAccount",
      "type": "error"
    },
    {
      "anonymous": false,
      "inputs": [
        {
          "indexed": true,
          "internalType": "address",
          "name": "admin",
          "type": "address"
        }
      ],
      "name": "AdminAdded",
      "type": "event"
    },
    {
      "anonymous": false,
      "inputs": [
        {
          "indexed": true,
          "internalType": "address",
          "name": "admin",
          "type": "address"
        }
      ],
      "name": "AdminRemoved",
      "type": "event"
    },
    {
      "anonymous": false,
      "inputs": [
        {
          "indexed": true,
          "internalType": "address",
          "name": "owner",
          "type": "address"
        },
        {
          "indexed": true,
          "internalType": "address",
          "name": "spender",
          "type": "address"
        },
        {
          "indexed": false,
          "internalType": "uint256",
          "name": "value",
          "type": "uint256"
        }
      ],
      "name": "Approval",
      "type": "event"
    },
    {
      "anonymous": false,
      "inputs": [
        {
          "indexed": true,
          "internalType": "address",
          "name": "previousOwner",
          "type": "address"
        },
        {
          "indexed": true,
          "internalType": "address",
          "name": "newOwner",
          "type": "address"
        }
      ],
      "name": "OwnershipTransferred",
      "type": "event"
    },
    {
      "anonymous": false,
      "inputs": [
        {
          "indexed": true,
          "internalType": "address",
          "name": "user",
          "type": "address"
        },
        {
          "indexed": false,
          "internalType": "uint256",
          "name": "amount",
          "type": "uint256"
        },
        {
          "indexed": false,
          "internalType": "string",
          "name": "reason",
          "type": "string"
        }
      ],
      "name": "PointsAwarded",
      "type": "event"
    },
    {
      "anonymous": false,
      "inputs": [
        {
          "indexed": true,
          "internalType": "address",
          "name": "user",
          "type": "address"
        },
        {
          "indexed": true,
          "internalType": "uint256",
          "name": "rewardId",
          "type": "uint256"
        },
        {
          "indexed": false,
          "internalType": "uint256",
          "name": "cost",
          "type": "uint256"
        },
        {
          "indexed": false,
          "internalType": "string",
          "name": "meta",
          "type": "string"
        }
      ],
      "name": "RewardRedeemed",
      "type": "event"
    },
    {
      "anonymous": false,
      "inputs": [
        {
          "indexed": true,
          "internalType": "address",
          "name": "from",
          "type": "address"
        },
        {
          "indexed": true,
          "internalType": "address",
          "name": "to",
          "type": "address"
        },
        {
          "indexed": false,
          "internalType": "uint256",
          "name": "value",
          "type": "uint256"
        }
      ],
      "name": "Transfer",
      "type": "event"
    },
    {
      "inputs": [
        {
          "internalType": "address",
          "name": "admin",
          "type": "address"
        }
      ],
      "name": "addAdmin",
      "outputs": [],
      "stateMutability": "nonpayable",
      "type": "function"
    },
    {
      "inputs": [
        {
          "internalType": "address",
          "name": "user",
          "type": "address"
        },
        {
          "internalType": "uint256",
          "name": "rewardId",
          "type": "uint256"
        },
        {
          "internalType": "uint256",
          "name": "cost",
          "type": "uint256"
        },
        {
          "internalType": "string",
          "name": "meta",
          "type": "string"
        }
      ],
      "name": "adminRedeem",
      "outputs": [],
      "stateMutability": "nonpayable",
      "type": "function"
    },
    {
      "inputs": [
        {
          "internalType": "address",
          "name": "",
          "type": "address"
        }
      ],
      "name": "admins",
      "outputs": [
        {
          "internalType": "bool",
          "name": "",
          "type": "bool"
        }
      ],
      "stateMutability": "view",
      "type": "function"
    },
    {
      "inputs": [
        {
          "internalType": "address",
          "name": "owner",
          "type": "address"
        },
        {
          "internalType": "address",
          "name": "spender",
          "type": "address"
        }
      ],
      "name": "allowance",
      "outputs": [
        {
          "internalType": "uint256",
          "name": "",
          "type": "uint256"
        }
      ],
      "stateMutability": "view",
      "type": "function"
    },
    {
      "inputs": [
        {
          "internalType": "address",
          "name": "spender",
          "type": "address"
        },
        {
          "internalType": "uint256",
          "name": "value",
          "type": "uint256"
        }
      ],
      "name": "approve",
      "outputs": [
        {
          "internalType": "bool",
          "name": "",
          "type": "bool"
        }
      ],
      "stateMutability": "nonpayable",
      "type": "function"
    },
    {
      "inputs": [
        {
          "internalType": "address",
          "name": "to",
          "type": "address"
        },
        {
          "internalType": "uint256",
          "name": "amount",
          "type": "uint256"
        },
        {
          "internalType": "string",
          "name": "reason",
          "type": "string"
        }
      ],
      "name": "awardPoints",
      "outputs": [],
      "stateMutability": "nonpayable",
      "type": "function"
    },
    {
      "inputs": [
        {
          "internalType": "address",
          "name": "account",
          "type": "address"
        }
      ],
      "name": "balanceOf",
      "outputs": [
        {
          "internalType": "uint256",
          "name": "",
          "type": "uint256"
        }
      ],
      "stateMutability": "view",
      "type": "function"
    },
    {
      "inputs": [
        {
          "internalType": "address[]",
          "name": "recipients",
          "type": "address[]"
        },
        {
          "internalType": "uint256[]",
          "name": "amounts",
          "type": "uint256[]"
        },
        {
          "internalType": "string",
          "name": "reason",
          "type": "string"
        }
      ],
      "name": "batchAwardPoints",
      "outputs": [],
      "stateMutability": "nonpayable",
      "type": "function"
    },
    {
      "inputs": [],
      "name": "decimals",
      "outputs": [
        {
          "internalType": "uint8",
          "name": "",
          "type": "uint8"
        }
      ],
      "stateMutability": "view",
      "type": "function"
    },
    {
      "inputs": [
        {
          "internalType": "address",
          "name": "user",
          "type": "address"
        }
      ],
      "name": "getTotalPoints",
      "outputs": [
        {
          "internalType": "uint256",
          "name": "",
          "type": "uint256"
        }
      ],
      "stateMutability": "view",
      "type": "function"
    },
    {
      "inputs": [
        {
          "internalType": "address",
          "name": "user",
          "type": "address"
        }
      ],
      "name": "getUserPoints",
      "outputs": [
        {
          "internalType": "uint256",
          "name": "current",
          "type": "uint256"
        },
        {
          "internalType": "uint256",
          "name": "total",
          "type": "uint256"
        }
      ],
      "stateMutability": "view",
      "type": "function"
    },
    {
      "inputs": [
        {
          "internalType": "address",
          "name": "account",
          "type": "address"
        }
      ],
      "name": "isAdmin",
      "outputs": [
        {
          "internalType": "bool",
          "name": "",
          "type": "bool"
        }
      ],
      "stateMutability": "view",
      "type": "function"
    },
    {
      "inputs": [],
      "name": "name",
      "outputs": [
        {
          "internalType": "string",
          "name": "",
          "type": "string"
        }
      ],
      "stateMutability": "view",
      "type": "function"
    },
    {
      "inputs": [],
      "name": "owner",
      "outputs": [
        {
          "internalType": "address",
          "name": "",
          "type": "address"
        }
      ],
      "stateMutability": "view",
      "type": "function"
    },
    {
      "inputs": [
        {
          "internalType": "uint256",
          "name": "rewardId",
          "type": "uint256"
        },
        {
          "internalType": "uint256",
          "name": "cost",
          "type": "uint256"
        },
        {
          "internalType": "string",
          "name": "meta",
          "type": "string"
        }
      ],
      "name": "redeemForReward",
      "outputs": [],
      "stateMutability": "nonpayable",
      "type": "function"
    },
    {
      "inputs": [
        {
          "internalType": "address",
          "name": "admin",
          "type": "address"
        }
      ],
      "name": "removeAdmin",
      "outputs": [],
      "stateMutability": "nonpayable",
      "type": "function"
    },
    {
      "inputs": [],
      "name": "renounceOwnership",
      "outputs": [],
      "stateMutability": "nonpayable",
      "type": "function"
    },
    {
      "inputs": [],
      "name": "rewardPool",
      "outputs": [
        {
          "internalType": "address",
          "name": "",
          "type": "address"
        }
      ],
      "stateMutability": "view",
      "type": "function"
    },
    {
      "inputs": [
        {
          "internalType": "address",
          "name": "_rewardPool",
          "type": "address"
        }
      ],
      "name": "setRewardPool",
      "outputs": [],
      "stateMutability": "nonpayable",
      "type": "function"
    },
    {
      "inputs": [],
      "name": "symbol",
      "outputs": [
        {
          "internalType": "string",
          "name": "",
          "type": "string"
        }
      ],
      "stateMutability": "view",
      "type": "function"
    },
    {
      "inputs": [],
      "name": "totalSupply",
      "outputs": [
        {
          "internalType": "uint256",
          "name": "",
          "type": "uint256"
        }
      ],
      "stateMutability": "view",
      "type": "function"
    },
    {
      "inputs": [
        {
          "internalType": "address",
          "name": "to",
          "type": "address"
        },
        {
          "internalType": "uint256",
          "name": "value",
          "type": "uint256"
        }
      ],
      "name": "transfer",
      "outputs": [
        {
          "internalType": "bool",
          "name": "",
          "type": "bool"
        }
      ],
      "stateMutability": "nonpayable",
      "type": "function"
    },
    {
      "inputs": [
        {
          "internalType": "address",
          "name": "from",
          "type": "address"
        },
        {
          "internalType": "address",
          "name": "to",
          "type": "address"
        },
        {
          "internalType": "uint256",
          "name": "value",
          "type": "uint256"
        }
      ],
      "name": "transferFrom",
      "outputs": [
        {
          "internalType": "bool",
          "name": "",
          "type": "bool"
        }
      ],
      "stateMutability": "nonpayable",
      "type": "function"
    },
    {
      "inputs": [
        {
          "internalType": "address",
          "name": "newOwner",
          "type": "address"
        }
      ],
      "name": "transferOwnership",
      "outputs": [],
      "stateMutability": "nonpayable",
      "type": "function"
    },
    {
      "inputs": [
        {
          "internalType": "address",
          "name": "",
          "type": "address"
        }
      ],
      "name": "userTotalPoints",
      "outputs": [
        {
          "internalType": "uint256",
          "name": "",
          "type": "uint256"
        }
      ],
      "stateMutability": "view",
      "type": "function"
    }
  ],
  "bytecode": "0x60806040523480156200001157600080fd5b506040516200197938038062001979833981016040819052620000349162000167565b8060405180604001604052806012815260200171735c42f2cdd6f3c757f25fcef3d3d7f2c44360711b8152506040518060400160405280600381526020016211d0d560ea1b81525081600390816200008d919062000240565b5060046200009c828262000240565b5050506001600160a01b038116620000ce57604051631e4fbdf760e01b81526000600482015260240160405180910390fd5b620000d98162000115565b506001600160a01b03166000818152600660205260409020805460ff19166001179055600880546001600160a01b03191690911790556200030c565b600580546001600160a01b038381166001600160a01b0319831681179093556040519116919082907f8be0079c531659141344cd1fd0a4f28419497f9722a3daafe3b4186f6b6457e090600090a35050565b6000602082840312156200017a57600080fd5b81516001600160a01b03811681146200019257600080fd5b9392505050565b634e487b7160e01b600052604160045260246000fd5b600181811c90821680620001c457607f821691505b602082108103620001e557634e487b7160e01b600052602260045260246000fd5b50919050565b601f8211156200023b576000816000526020600020601f850160051c81016020861015620002165750805b601f850160051c820191505b81811015620002375782815560010162000222565b5050505b505050565b81516001600160401b038111156200025c576200025c62000199565b62000274816200026d8454620001af565b84620001eb565b602080601f831160018114620002ac5760008415620002935750858301515b600019600386901b1c1916600185901b17855562000237565b600085815260208120601f198616915b82811015620002dd57888601518255948401946001909101908401620002bc565b5085821015620002fc5787850151600019600388901b60f8161c191681555b5050505050600190811b01905550565b61165d806200031c6000396000f3fe608060405234801561001057600080fd5b50600436106101735760003560e01c806370a08231116100de578063a9059cbb11610097578063b2f3e4eb11610071578063b2f3e4eb146103bb578063dd62ed3e146103ce578063e23112c214610407578063f2fde38b1461041a57600080fd5b8063a9059cbb1461034c578063aeefe31f1461035f578063b27de99e146103a857600080fd5b806370a08231146102cf578063715018a6146102f857806378238c37146103005780638da5cb5b1461031357806395d89b41146103245780639a60de7d1461032c57600080fd5b806324d7806c1161013057806324d7806c14610220578063290ab9ab1461024c578063313ce5671461025f578063429b62e51461026e57806366666aa91461029157806370480275146102bc57600080fd5b806306fdde0314610178578063095ea7b3146101965780631088ce90146101b95780631785f53c146101f057806318160ddd1461020557806323b872dd1461020d575b600080fd5b61018061042d565b60405161018d919061119e565b60405180910390f35b6101a96101a43660046111d4565b6104bf565b604051901515815260200161018d565b6101e26101c73660046111fe565b6001600160a01b031660009081526007602052604090205490565b60405190815260200161018d565b6102036101fe3660046111fe565b6104d9565b005b6002546101e2565b6101a961021b366004611219565b61052a565b6101a961022e3660046111fe565b6001600160a01b031660009081526006602052604090205460ff1690565b61020361025a3660046112f8565b61054e565b6040516012815260200161018d565b6101a961027c3660046111fe565b60066020526000908152604090205460ff1681565b6008546102a4906001600160a01b031681565b6040516001600160a01b03909116815260200161018d565b6102036102ca3660046111fe565b6106d9565b6101e26102dd3660046111fe565b6001600160a01b031660009081526020819052604090205490565b61020361072d565b61020361030e3660046111fe565b610741565b6005546001600160a01b03166102a4565b6101806107b7565b6101e261033a3660046111fe565b60076020526000908152604090205481565b6101a961035a3660046111d4565b6107c6565b61039361036d3660046111fe565b6001600160a01b0316600090815260208181526040808320546007909252909120549091565b6040805192835260208301919091520161018d565b6102036103b636600461139b565b6107d4565b6102036103c9366004611471565b610a36565b6101e26103dc3660046114c4565b6001600160a01b03918216600090815260016020908152604080832093909416825291909152205490565b6102036104153660046114f7565b610b69565b6102036104283660046111fe565b610d4a565b60606003805461043c9061155f565b80601f01602080910402602001604051908101604052809291908181526020018280546104689061155f565b80156104b55780601f1061048a576101008083540402835291602001916104b5565b820191906000526020600020905b81548152906001019060200180831161049857829003601f168201915b5050505050905090565b6000336104cd818585610d88565b60019150505b92915050565b6104e1610d9a565b6001600160a01b038116600081815260066020526040808220805460ff19169055517fa3b62bc36326052d97ea62d63c3d60308ed4c3ea8ac079dd8499f1e9c4f80c0f9190a250565b600033610538858285610dc7565b610543858585610e46565b506001949350505050565b3360009081526006602052604090205460ff166105b25760405162461bcd60e51b815260206004820152601c60248201527f4f6e6c792061646d696e732063616e20617761726420706f696e74730000000060448201526064015b60405180910390fd5b6001600160a01b0383166106085760405162461bcd60e51b815260206004820152601c60248201527f43616e6e6f7420617761726420746f207a65726f20616464726573730000000060448201526064016105a9565b600082116106585760405162461bcd60e51b815260206004820152601d60248201527f416d6f756e74206d7573742062652067726561746572207468616e203000000060448201526064016105a9565b6106628383610ea5565b6001600160a01b0383166000908152600760205260408120805484929061068a908490611599565b92505081905550826001600160a01b03167f4c3089477cda1ac100291a040b3ac97ff5f55b6d8b2acfb56a59b9419d95ce0483836040516106cc9291906115ba565b60405180910390a2505050565b6106e1610d9a565b6001600160a01b038116600081815260066020526040808220805460ff19166001179055517f44d6d25963f097ad14f29f06854a01f575648a1ef82f30e562ccd3889717e3399190a250565b610735610d9a565b61073f6000610edf565b565b610749610d9a565b6001600160a01b0381166107955760405162461bcd60e51b81526020600482015260136024820152721c995dd85c99141bdbdb081c995c5d5a5c9959606a1b60448201526064016105a9565b600880546001600160a01b0319166001600160a01b0392909216919091179055565b60606004805461043c9061155f565b6000336104cd818585610e46565b3360009081526006602052604090205460ff166108335760405162461bcd60e51b815260206004820152601c60248201527f4f6e6c792061646d696e732063616e20617761726420706f696e74730000000060448201526064016105a9565b83821461087b5760405162461bcd60e51b8152602060048201526016602482015275082e4e4c2f2e640d8cadccee8d040dad2e6dac2e8c6d60531b60448201526064016105a9565b60005b84811015610a2e57600086868381811061089a5761089a6115db565b90506020020160208101906108af91906111fe565b6001600160a01b0316141580156108de575060008484838181106108d5576108d56115db565b90506020020135115b15610a265761092b8686838181106108f8576108f86115db565b905060200201602081019061090d91906111fe565b85858481811061091f5761091f6115db565b90506020020135610ea5565b83838281811061093d5761093d6115db565b905060200201356007600088888581811061095a5761095a6115db565b905060200201602081019061096f91906111fe565b6001600160a01b03166001600160a01b03168152602001908152602001600020600082825461099e9190611599565b9091555086905085828181106109b6576109b66115db565b90506020020160208101906109cb91906111fe565b6001600160a01b03167f4c3089477cda1ac100291a040b3ac97ff5f55b6d8b2acfb56a59b9419d95ce04858584818110610a0757610a076115db565b9050602002013584604051610a1d9291906115ba565b60405180910390a25b60010161087e565b505050505050565b83600003610a7a5760405162461bcd60e51b81526020600482015260116024820152701c995dd85c991259081c995c5d5a5c9959607a1b60448201526064016105a9565b60008311610abd5760405162461bcd60e51b815260206004820152601060248201526f0636f7374206d757374206265203e20360841b60448201526064016105a9565b33600090815260208190526040902054831115610b135760405162461bcd60e51b8152602060048201526014602482015273696e73756666696369656e742062616c616e636560601b60448201526064016105a9565b610b1d3384610f31565b83336001600160a01b03167f6c85f9662ee70a1a0240dc943c925e21501fd1de0e3bd1add6f4af4c303ff291858585604051610b5b939291906115f1565b60405180910390a350505050565b3360009081526006602052604090205460ff16610bc15760405162461bcd60e51b81526020600482015260166024820152754f6e6c792061646d696e732063616e2072656465656d60501b60448201526064016105a9565b6001600160a01b038516610c075760405162461bcd60e51b815260206004820152600d60248201526c1d5cd95c881c995c5d5a5c9959609a1b60448201526064016105a9565b83600003610c4b5760405162461bcd60e51b81526020600482015260116024820152701c995dd85c991259081c995c5d5a5c9959607a1b60448201526064016105a9565b60008311610c8e5760405162461bcd60e51b815260206004820152601060248201526f0636f7374206d757374206265203e20360841b60448201526064016105a9565b82610cae866001600160a01b031660009081526020819052604090205490565b1015610cf35760405162461bcd60e51b8152602060048201526014602482015273696e73756666696369656e742062616c616e636560601b60448201526064016105a9565b610cfd8584610f31565b83856001600160a01b03167f6c85f9662ee70a1a0240dc943c925e21501fd1de0e3bd1add6f4af4c303ff291858585604051610d3b939291906115f1565b60405180910390a35050505050565b610d52610d9a565b6001600160a01b038116610d7c57604051631e4fbdf760e01b8152600060048201526024016105a9565b610d8581610edf565b50565b610d958383836001610f67565b505050565b6005546001600160a01b0316331461073f5760405163118cdaa760e01b81523360048201526024016105a9565b6001600160a01b03838116600090815260016020908152604080832093861683529290522054600019811015610e405781811015610e3157604051637dc7a0d960e11b81526001600160a01b038416600482015260248101829052604481018390526064016105a9565b610e4084848484036000610f67565b50505050565b6001600160a01b038316610e7057604051634b637e8f60e11b8152600060048201526024016105a9565b6001600160a01b038216610e9a5760405163ec442f0560e01b8152600060048201526024016105a9565b610d9583838361102e565b6001600160a01b038216610ecf5760405163ec442f0560e01b8152600060048201526024016105a9565b610edb6000838361102e565b5050565b600580546001600160a01b038381166001600160a01b0319831681179093556040519116919082907f8be0079c531659141344cd1fd0a4f28419497f9722a3daafe3b4186f6b6457e090600090a35050565b6001600160a01b038216610f5b57604051634b637e8f60e11b8152600060048201526024016105a9565b610edb8260008361102e565b6001600160a01b038416610f915760405163e602df0560e01b8152600060048201526024016105a9565b6001600160a01b038316610fbb57604051634a1406b160e11b8152600060048201526024016105a9565b6001600160a01b0380851660009081526001602090815260408083209387168352929052208290558015610e4057826001600160a01b0316846001600160a01b03167f8c5be1e5ebec7d5bd14f71427d1e84f3dd0314c0f7b2291e5b200ac8c7c3b92584604051610b5b91815260200190565b6001600160a01b03831661105957806002600082825461104e9190611599565b909155506110cb9050565b6001600160a01b038316600090815260208190526040902054818110156110ac5760405163391434e360e21b81526001600160a01b038516600482015260248101829052604481018390526064016105a9565b6001600160a01b03841660009081526020819052604090209082900390555b6001600160a01b0382166110e757600280548290039055611106565b6001600160a01b03821660009081526020819052604090208054820190555b816001600160a01b0316836001600160a01b03167fddf252ad1be2c89b69c2b068fc378daa952ba7f163c4a11628f55a4df523b3ef8360405161114b91815260200190565b60405180910390a3505050565b6000815180845260005b8181101561117e57602081850181015186830182015201611162565b506000602082860101526020601f19601f83011685010191505092915050565b6020815260006111b16020830184611158565b9392505050565b80356001600160a01b03811681146111cf57600080fd5b919050565b600080604083850312156111e757600080fd5b6111f0836111b8565b946020939093013593505050565b60006020828403121561121057600080fd5b6111b1826111b8565b60008060006060848603121561122e57600080fd5b611237846111b8565b9250611245602085016111b8565b9150604084013590509250925092565b634e487b7160e01b600052604160045260246000fd5b600082601f83011261127c57600080fd5b813567ffffffffffffffff8082111561129757611297611255565b604051601f8301601f19908116603f011681019082821181831017156112bf576112bf611255565b816040528381528660208588010111156112d857600080fd5b836020870160208301376000602085830101528094505050505092915050565b60008060006060848603121561130d57600080fd5b611316846111b8565b925060208401359150604084013567ffffffffffffffff81111561133957600080fd5b6113458682870161126b565b9150509250925092565b60008083601f84011261136157600080fd5b50813567ffffffffffffffff81111561137957600080fd5b6020830191508360208260051b850101111561139457600080fd5b9250929050565b6000806000806000606086880312156113b357600080fd5b853567ffffffffffffffff808211156113cb57600080fd5b6113d789838a0161134f565b909750955060208801359150808211156113f057600080fd5b6113fc89838a0161134f565b9095509350604088013591508082111561141557600080fd5b506114228882890161126b565b9150509295509295909350565b60008083601f84011261144157600080fd5b50813567ffffffffffffffff81111561145957600080fd5b60208301915083602082850101111561139457600080fd5b6000806000806060858703121561148757600080fd5b8435935060208501359250604085013567ffffffffffffffff8111156114ac57600080fd5b6114b88782880161142f565b95989497509550505050565b600080604083850312156114d757600080fd5b6114e0836111b8565b91506114ee602084016111b8565b90509250929050565b60008060008060006080868803121561150f57600080fd5b611518866111b8565b94506020860135935060408601359250606086013567ffffffffffffffff81111561154257600080fd5b61154e8882890161142f565b969995985093965092949392505050565b600181811c9082168061157357607f821691505b60208210810361159357634e487b7160e01b600052602260045260246000fd5b50919050565b808201808211156104d357634e487b7160e01b600052601160045260246000fd5b8281526040602082015260006115d36040830184611158565b949350505050565b634e487b7160e01b600052603260045260246000fd5b83815260406020820152816040820152818360608301376000818301606090810191909152601f909201601f191601019291505056fea2646970667358221220f8616f3225d2cd404bb588481df8060b20daeed77f39ef998e9bb0e6104a444c64736f6c63430008180033",
  "linkReferences": {},
  "deployedLinkReferences": {}
}